{
  "contractName": "StudentDetails",
  "abi": [
    {
      "constant": true,
      "inputs": [
        {
          "name": "",
          "type": "uint256"
        }
      ],
      "name": "studIdList",
      "outputs": [
        {
          "name": "",
          "type": "uint256"
        }
      ],
      "payable": false,
      "stateMutability": "view",
      "type": "function",
      "signature": "0x273ce3d9"
    },
    {
      "constant": true,
      "inputs": [],
      "name": "title",
      "outputs": [
        {
          "name": "",
          "type": "string"
        }
      ],
      "payable": false,
      "stateMutability": "view",
      "type": "function",
      "signature": "0x4a79d50c"
    },
    {
      "constant": true,
      "inputs": [
        {
          "name": "",
          "type": "uint256"
        }
      ],
      "name": "studentList",
      "outputs": [
        {
          "name": "id",
          "type": "uint256"
        },
        {
          "name": "regNo",
          "type": "string"
        },
        {
          "name": "firstName",
          "type": "string"
        },
        {
          "name": "lastName",
          "type": "string"
        },
        {
          "name": "department",
          "type": "string"
        },
        {
          "name": "DOB",
          "type": "uint256"
        },
        {
          "name": "yearOfGraduation",
          "type": "uint256"
        },
        {
          "name": "CGPA",
          "type": "string"
        },
        {
          "name": "percentage",
          "type": "string"
        }
      ],
      "payable": false,
      "stateMutability": "view",
      "type": "function",
      "signature": "0x7df221e9"
    },
    {
      "constant": true,
      "inputs": [
        {
          "name": "",
          "type": "uint256"
        }
      ],
      "name": "studentMarksList",
      "outputs": [
        {
          "name": "s1",
          "type": "uint256"
        },
        {
          "name": "s2",
          "type": "uint256"
        },
        {
          "name": "s3",
          "type": "uint256"
        },
        {
          "name": "s4",
          "type": "uint256"
        },
        {
          "name": "s5",
          "type": "uint256"
        },
        {
          "name": "s6",
          "type": "uint256"
        },
        {
          "name": "s7",
          "type": "uint256"
        },
        {
          "name": "s8",
          "type": "uint256"
        }
      ],
      "payable": false,
      "stateMutability": "view",
      "type": "function",
      "signature": "0xbc2477cc"
    },
    {
      "constant": true,
      "inputs": [],
      "name": "studentMarksCount",
      "outputs": [
        {
          "name": "",
          "type": "uint256"
        }
      ],
      "payable": false,
      "stateMutability": "view",
      "type": "function",
      "signature": "0xdfc8488a"
    },
    {
      "constant": true,
      "inputs": [],
      "name": "studentCount",
      "outputs": [
        {
          "name": "",
          "type": "uint256"
        }
      ],
      "payable": false,
      "stateMutability": "view",
      "type": "function",
      "signature": "0xe581f9ee"
    },
    {
      "inputs": [],
      "payable": false,
      "stateMutability": "nonpayable",
      "type": "constructor",
      "signature": "constructor"
    },
    {
      "anonymous": false,
      "inputs": [
        {
          "indexed": false,
          "name": "id",
          "type": "uint256"
        },
        {
          "indexed": false,
          "name": "regNo",
          "type": "string"
        },
        {
          "indexed": false,
          "name": "firstName",
          "type": "string"
        },
        {
          "indexed": false,
          "name": "lastName",
          "type": "string"
        },
        {
          "indexed": false,
          "name": "department",
          "type": "string"
        },
        {
          "indexed": false,
          "name": "DOB",
          "type": "uint256"
        },
        {
          "indexed": false,
          "name": "yearOfGraduation",
          "type": "uint256"
        },
        {
          "indexed": false,
          "name": "CGPA",
          "type": "string"
        },
        {
          "indexed": false,
          "name": "percentage",
          "type": "string"
        }
      ],
      "name": "studentCreationEvent",
      "type": "event",
      "signature": "0x71d7b0422e70397e328078677950f31333b65595c812b70a82accc3b7a490087"
    },
    {
      "anonymous": false,
      "inputs": [
        {
          "indexed": false,
          "name": "s1",
          "type": "uint256"
        },
        {
          "indexed": false,
          "name": "s2",
          "type": "uint256"
        },
        {
          "indexed": false,
          "name": "s3",
          "type": "uint256"
        },
        {
          "indexed": false,
          "name": "s4",
          "type": "uint256"
        },
        {
          "indexed": false,
          "name": "s5",
          "type": "uint256"
        },
        {
          "indexed": false,
          "name": "s6",
          "type": "uint256"
        },
        {
          "indexed": false,
          "name": "s7",
          "type": "uint256"
        },
        {
          "indexed": false,
          "name": "s8",
          "type": "uint256"
        }
      ],
      "name": "studentMarksEvent",
      "type": "event",
      "signature": "0xf640a871812b646b24a9f226ca1d14e491d3ca81c7b2aa4a3ed308b6c93c958b"
    },
    {
      "constant": false,
      "inputs": [
        {
          "name": "_studId",
          "type": "uint256"
        },
        {
          "name": "_regNo",
          "type": "string"
        },
        {
          "name": "_firstName",
          "type": "string"
        },
        {
          "name": "_lastName",
          "type": "string"
        },
        {
          "name": "_department",
          "type": "string"
        },
        {
          "name": "_DOB",
          "type": "uint256"
        },
        {
          "name": "_yearOfGraduation",
          "type": "uint256"
        },
        {
          "name": "_CGPA",
          "type": "string"
        },
        {
          "name": "_percentage",
          "type": "string"
        }
      ],
      "name": "createStudent",
      "outputs": [],
      "payable": false,
      "stateMutability": "nonpayable",
      "type": "function",
      "signature": "0x1d97fedb"
    },
    {
      "constant": false,
      "inputs": [
        {
          "name": "_s1",
          "type": "uint256"
        },
        {
          "name": "_s2",
          "type": "uint256"
        },
        {
          "name": "_s3",
          "type": "uint256"
        },
        {
          "name": "_s4",
          "type": "uint256"
        },
        {
          "name": "_s5",
          "type": "uint256"
        },
        {
          "name": "_s6",
          "type": "uint256"
        },
        {
          "name": "_s7",
          "type": "uint256"
        },
        {
          "name": "_s8",
          "type": "uint256"
        }
      ],
      "name": "createStudentMarks",
      "outputs": [],
      "payable": false,
      "stateMutability": "nonpayable",
      "type": "function",
      "signature": "0xb63a1058"
    },
    {
      "constant": true,
      "inputs": [],
      "name": "getStudents",
      "outputs": [
        {
          "name": "",
          "type": "uint256[]"
        }
      ],
      "payable": false,
      "stateMutability": "view",
      "type": "function",
      "signature": "0xf1d064b3"
    },
    {
      "constant": true,
      "inputs": [
        {
          "name": "_studId",
          "type": "uint256"
        }
      ],
      "name": "getParticularStudent",
      "outputs": [
        {
          "name": "",
          "type": "uint256"
        },
        {
          "name": "",
          "type": "string"
        },
        {
          "name": "",
          "type": "string"
        },
        {
          "name": "",
          "type": "string"
        },
        {
          "name": "",
          "type": "string"
        },
        {
          "name": "",
          "type": "uint256"
        },
        {
          "name": "",
          "type": "uint256"
        },
        {
          "name": "",
          "type": "string"
        },
        {
          "name": "",
          "type": "string"
        }
      ],
      "payable": false,
      "stateMutability": "view",
      "type": "function",
      "signature": "0xab9ba24f"
    },
    {
      "constant": true,
      "inputs": [],
      "name": "countStudents",
      "outputs": [
        {
          "name": "",
          "type": "uint256"
        }
      ],
      "payable": false,
      "stateMutability": "view",
      "type": "function",
      "signature": "0x477f5a69"
    }
  ],
  "bytecode": "0x60806040526001805560016002553480156200001a57600080fd5b50606060405190810160405280603b81526020017f41434144454d49432043524544454e5449414c20564552494649434154494f4e81526020017f20544543484e49515545205553494e4720424c4f434b434841494e0000000000815250600090805190602001906200008f92919062000096565b5062000145565b828054600181600116156101000203166002900490600052602060002090601f016020900481019282601f10620000d957805160ff19168380011785556200010a565b828001600101855582156200010a579182015b8281111562000109578251825591602001919060010190620000ec565b5b5090506200011991906200011d565b5090565b6200014291905b808211156200013e57600081600090555060010162000124565b5090565b90565b611d9380620001556000396000f3fe6080604052600436106100af576000357c0100000000000000000000000000000000000000000000000000000000900463ffffffff1680631d97fedb146100b4578063273ce3d91461048e578063477f5a69146104dd5780634a79d50c146105085780637df221e914610598578063ab9ba24f1461087d578063b63a105814610b62578063bc2477cc14610be4578063dfc8488a14610c64578063e581f9ee14610c8f578063f1d064b314610cba575b600080fd5b3480156100c057600080fd5b5061048c60048036036101208110156100d857600080fd5b8101908080359060200190929190803590602001906401000000008111156100ff57600080fd5b82018360208201111561011157600080fd5b8035906020019184600183028401116401000000008311171561013357600080fd5b91908080601f016020809104026020016040519081016040528093929190818152602001838380828437600081840152601f19601f8201169050808301925050505050505091929192908035906020019064010000000081111561019657600080fd5b8201836020820111156101a857600080fd5b803590602001918460018302840111640100000000831117156101ca57600080fd5b91908080601f016020809104026020016040519081016040528093929190818152602001838380828437600081840152601f19601f8201169050808301925050505050505091929192908035906020019064010000000081111561022d57600080fd5b82018360208201111561023f57600080fd5b8035906020019184600183028401116401000000008311171561026157600080fd5b91908080601f016020809104026020016040519081016040528093929190818152602001838380828437600081840152601f19601f820116905080830192505050505050509192919290803590602001906401000000008111156102c457600080fd5b8201836020820111156102d657600080fd5b803590602001918460018302840111640100000000831117156102f857600080fd5b91908080601f016020809104026020016040519081016040528093929190818152602001838380828437600081840152601f19601f82011690508083019250505050505050919291929080359060200190929190803590602001909291908035906020019064010000000081111561036f57600080fd5b82018360208201111561038157600080fd5b803590602001918460018302840111640100000000831117156103a357600080fd5b91908080601f016020809104026020016040519081016040528093929190818152602001838380828437600081840152601f19601f8201169050808301925050505050505091929192908035906020019064010000000081111561040657600080fd5b82018360208201111561041857600080fd5b8035906020019184600183028401116401000000008311171561043a57600080fd5b91908080601f016020809104026020016040519081016040528093929190818152602001838380828437600081840152601f19601f820116905080830192505050505050509192919290505050610d26565b005b34801561049a57600080fd5b506104c7600480360360208110156104b157600080fd5b810190808035906020019092919050505061116d565b6040518082815260200191505060405180910390f35b3480156104e957600080fd5b506104f2611190565b6040518082815260200191505060405180910390f35b34801561051457600080fd5b5061051d61119d565b6040518080602001828103825283818151815260200191508051906020019080838360005b8381101561055d578082015181840152602081019050610542565b50505050905090810190601f16801561058a5780820380516001836020036101000a031916815260200191505b509250505060405180910390f35b3480156105a457600080fd5b506105d1600480360360208110156105bb57600080fd5b810190808035906020019092919050505061123b565b604051808a815260200180602001806020018060200180602001898152602001888152602001806020018060200187810387528f818151815260200191508051906020019080838360005b8381101561063757808201518184015260208101905061061c565b50505050905090810190601f1680156106645780820380516001836020036101000a031916815260200191505b5087810386528e818151815260200191508051906020019080838360005b8381101561069d578082015181840152602081019050610682565b50505050905090810190601f1680156106ca5780820380516001836020036101000a031916815260200191505b5087810385528d818151815260200191508051906020019080838360005b838110156107035780820151818401526020810190506106e8565b50505050905090810190601f1680156107305780820380516001836020036101000a031916815260200191505b5087810384528c818151815260200191508051906020019080838360005b8381101561076957808201518184015260208101905061074e565b50505050905090810190601f1680156107965780820380516001836020036101000a031916815260200191505b50878103835289818151815260200191508051906020019080838360005b838110156107cf5780820151818401526020810190506107b4565b50505050905090810190601f1680156107fc5780820380516001836020036101000a031916815260200191505b50878103825288818151815260200191508051906020019080838360005b8381101561083557808201518184015260208101905061081a565b50505050905090810190601f1680156108625780820380516001836020036101000a031916815260200191505b509f5050505050505050505050505050505060405180910390f35b34801561088957600080fd5b506108b6600480360360208110156108a057600080fd5b8101908080359060200190929190505050611619565b604051808a815260200180602001806020018060200180602001898152602001888152602001806020018060200187810387528f818151815260200191508051906020019080838360005b8381101561091c578082015181840152602081019050610901565b50505050905090810190601f1680156109495780820380516001836020036101000a031916815260200191505b5087810386528e818151815260200191508051906020019080838360005b83811015610982578082015181840152602081019050610967565b50505050905090810190601f1680156109af5780820380516001836020036101000a031916815260200191505b5087810385528d818151815260200191508051906020019080838360005b838110156109e85780820151818401526020810190506109cd565b50505050905090810190601f168015610a155780820380516001836020036101000a031916815260200191505b5087810384528c818151815260200191508051906020019080838360005b83811015610a4e578082015181840152602081019050610a33565b50505050905090810190601f168015610a7b5780820380516001836020036101000a031916815260200191505b50878103835289818151815260200191508051906020019080838360005b83811015610ab4578082015181840152602081019050610a99565b50505050905090810190601f168015610ae15780820380516001836020036101000a031916815260200191505b50878103825288818151815260200191508051906020019080838360005b83811015610b1a578082015181840152602081019050610aff565b50505050905090810190601f168015610b475780820380516001836020036101000a031916815260200191505b509f5050505050505050505050505050505060405180910390f35b348015610b6e57600080fd5b50610be26004803603610100811015610b8657600080fd5b810190808035906020019092919080359060200190929190803590602001909291908035906020019092919080359060200190929190803590602001909291908035906020019092919080359060200190929190505050611a9b565b005b348015610bf057600080fd5b50610c1d60048036036020811015610c0757600080fd5b8101908080359060200190929190505050611bc9565b604051808981526020018881526020018781526020018681526020018581526020018481526020018381526020018281526020019850505050505050505060405180910390f35b348015610c7057600080fd5b50610c79611c11565b6040518082815260200191505060405180910390f35b348015610c9b57600080fd5b50610ca4611c17565b6040518082815260200191505060405180910390f35b348015610cc657600080fd5b50610ccf611c1d565b6040518080602001828103825283818151815260200191508051906020019060200280838360005b83811015610d12578082015181840152602081019050610cf7565b505050509050019250505060405180910390f35b610120604051908101604052808a815260200189815260200188815260200187815260200186815260200185815260200184815260200183815260200182815250600360006001548152602001908152602001600020600082015181600001556020820151816001019080519060200190610da2929190611c75565b506040820151816002019080519060200190610dbf929190611c75565b506060820151816003019080519060200190610ddc929190611c75565b506080820151816004019080519060200190610df9929190611c75565b5060a0820151816005015560c0820151816006015560e0820151816007019080519060200190610e2a929190611c75565b50610100820151816008019080519060200190610e48929190611c75565b50905050600160058a9080600181540180825580915050906001820390600052602060002001600090919290919091505550506001600081548092919060010191905055507f71d7b0422e70397e328078677950f31333b65595c812b70a82accc3b7a490087898989898989898989604051808a815260200180602001806020018060200180602001898152602001888152602001806020018060200187810387528f818151815260200191508051906020019080838360005b83811015610f1d578082015181840152602081019050610f02565b50505050905090810190601f168015610f4a5780820380516001836020036101000a031916815260200191505b5087810386528e818151815260200191508051906020019080838360005b83811015610f83578082015181840152602081019050610f68565b50505050905090810190601f168015610fb05780820380516001836020036101000a031916815260200191505b5087810385528d818151815260200191508051906020019080838360005b83811015610fe9578082015181840152602081019050610fce565b50505050905090810190601f1680156110165780820380516001836020036101000a031916815260200191505b5087810384528c818151815260200191508051906020019080838360005b8381101561104f578082015181840152602081019050611034565b50505050905090810190601f16801561107c5780820380516001836020036101000a031916815260200191505b50878103835289818151815260200191508051906020019080838360005b838110156110b557808201518184015260208101905061109a565b50505050905090810190601f1680156110e25780820380516001836020036101000a031916815260200191505b50878103825288818151815260200191508051906020019080838360005b8381101561111b578082015181840152602081019050611100565b50505050905090810190601f1680156111485780820380516001836020036101000a031916815260200191505b509f5050505050505050505050505050505060405180910390a1505050505050505050565b60058181548110151561117c57fe5b906000526020600020016000915090505481565b6000600580549050905090565b60008054600181600116156101000203166002900480601f0160208091040260200160405190810160405280929190818152602001828054600181600116156101000203166002900480156112335780601f1061120857610100808354040283529160200191611233565b820191906000526020600020905b81548152906001019060200180831161121657829003601f168201915b505050505081565b6003602052806000526040600020600091509050806000015490806001018054600181600116156101000203166002900480601f0160208091040260200160405190810160405280929190818152602001828054600181600116156101000203166002900480156112ed5780601f106112c2576101008083540402835291602001916112ed565b820191906000526020600020905b8154815290600101906020018083116112d057829003601f168201915b505050505090806002018054600181600116156101000203166002900480601f01602080910402602001604051908101604052809291908181526020018280546001816001161561010002031660029004801561138b5780601f106113605761010080835404028352916020019161138b565b820191906000526020600020905b81548152906001019060200180831161136e57829003601f168201915b505050505090806003018054600181600116156101000203166002900480601f0160208091040260200160405190810160405280929190818152602001828054600181600116156101000203166002900480156114295780601f106113fe57610100808354040283529160200191611429565b820191906000526020600020905b81548152906001019060200180831161140c57829003601f168201915b505050505090806004018054600181600116156101000203166002900480601f0160208091040260200160405190810160405280929190818152602001828054600181600116156101000203166002900480156114c75780601f1061149c576101008083540402835291602001916114c7565b820191906000526020600020905b8154815290600101906020018083116114aa57829003601f168201915b505050505090806005015490806006015490806007018054600181600116156101000203166002900480601f0160208091040260200160405190810160405280929190818152602001828054600181600116156101000203166002900480156115715780601f1061154657610100808354040283529160200191611571565b820191906000526020600020905b81548152906001019060200180831161155457829003601f168201915b505050505090806008018054600181600116156101000203166002900480601f01602080910402602001604051908101604052809291908181526020018280546001816001161561010002031660029004801561160f5780601f106115e45761010080835404028352916020019161160f565b820191906000526020600020905b8154815290600101906020018083116115f257829003601f168201915b5050505050905089565b600060608060608060008060608061162f611cf5565b600360008c8152602001908152602001600020610120604051908101604052908160008201548152602001600182018054600181600116156101000203166002900480601f0160208091040260200160405190810160405280929190818152602001828054600181600116156101000203166002900480156116f25780601f106116c7576101008083540402835291602001916116f2565b820191906000526020600020905b8154815290600101906020018083116116d557829003601f168201915b50505050508152602001600282018054600181600116156101000203166002900480601f0160208091040260200160405190810160405280929190818152602001828054600181600116156101000203166002900480156117945780601f1061176957610100808354040283529160200191611794565b820191906000526020600020905b81548152906001019060200180831161177757829003601f168201915b50505050508152602001600382018054600181600116156101000203166002900480601f0160208091040260200160405190810160405280929190818152602001828054600181600116156101000203166002900480156118365780601f1061180b57610100808354040283529160200191611836565b820191906000526020600020905b81548152906001019060200180831161181957829003601f168201915b50505050508152602001600482018054600181600116156101000203166002900480601f0160208091040260200160405190810160405280929190818152602001828054600181600116156101000203166002900480156118d85780601f106118ad576101008083540402835291602001916118d8565b820191906000526020600020905b8154815290600101906020018083116118bb57829003601f168201915b505050505081526020016005820154815260200160068201548152602001600782018054600181600116156101000203166002900480601f01602080910402602001604051908101604052809291908181526020018280546001816001161561010002031660029004801561198e5780601f106119635761010080835404028352916020019161198e565b820191906000526020600020905b81548152906001019060200180831161197157829003601f168201915b50505050508152602001600882018054600181600116156101000203166002900480601f016020809104026020016040519081016040528092919081815260200182805460018160011615610100020316600290048015611a305780601f10611a0557610100808354040283529160200191611a30565b820191906000526020600020905b815481529060010190602001808311611a1357829003601f168201915b5050505050815250509050806000015181602001518260400151836060015184608001518560a001518660c001518760e00151886101000151879750869650859550849450819150809050995099509950995099509950995099509950509193959799909294969850565b6101006040519081016040528089815260200188815260200187815260200186815260200185815260200184815260200183815260200182815250600460006002548152602001908152602001600020600082015181600001556020820151816001015560408201518160020155606082015181600301556080820151816004015560a0820151816005015560c0820151816006015560e082015181600701559050506002600081548092919060010191905055507ff640a871812b646b24a9f226ca1d14e491d3ca81c7b2aa4a3ed308b6c93c958b8888888888888888604051808981526020018881526020018781526020018681526020018581526020018481526020018381526020018281526020019850505050505050505060405180910390a15050505050505050565b60046020528060005260406000206000915090508060000154908060010154908060020154908060030154908060040154908060050154908060060154908060070154905088565b60025481565b60015481565b60606005805480602002602001604051908101604052809291908181526020018280548015611c6b57602002820191906000526020600020905b815481526020019060010190808311611c57575b5050505050905090565b828054600181600116156101000203166002900490600052602060002090601f016020900481019282601f10611cb657805160ff1916838001178555611ce4565b82800160010185558215611ce4579182015b82811115611ce3578251825591602001919060010190611cc8565b5b509050611cf19190611d42565b5090565b610120604051908101604052806000815260200160608152602001606081526020016060815260200160608152602001600081526020016000815260200160608152602001606081525090565b611d6491905b80821115611d60576000816000905550600101611d48565b5090565b9056fea165627a7a72305820c7a15ea14b503926cb45fd0e8195248f40b067e2a2c04c534e8a36d344eceba30029",
  "source": "pragma solidity  >=0.4.22 <0.6.0;\r\n\r\ncontract StudentDetails \r\n{\r\n    string public title;\r\n    uint public studentCount = 1;\r\n    uint public studentMarksCount = 1;\r\n\r\n    mapping (uint => Student) public studentList;\r\n    mapping (uint => StudentMarks) public studentMarksList;\r\n\r\n\r\n    struct Student\r\n    {\r\n        uint id;\r\n        string regNo;\r\n        string firstName;\r\n        string lastName;\r\n        string department;\r\n        uint DOB;\r\n        uint yearOfGraduation;\r\n        string CGPA;\r\n        string percentage;\r\n        //uint noOfSubjects;\r\n        //string[] subjectName;\r\n        //uint[] subjectMarks;\r\n    }\r\n    struct StudentMarks\r\n    {\r\n        uint s1;\r\n        uint s2;\r\n        uint s3;\r\n        uint s4;\r\n        uint s5;\r\n        uint s6;\r\n        uint s7;\r\n        uint s8;\r\n    }\r\n    \r\n\r\n    constructor() public\r\n    {\r\n        title = \"ACADEMIC CREDENTIAL VERIFICATION TECHNIQUE USING BLOCKCHAIN\";\r\n    }\r\n\r\n    uint[] public studIdList;\r\n\r\n    event studentCreationEvent\r\n    (\r\n        uint id,\r\n        string regNo,\r\n        string firstName,\r\n        string lastName,\r\n        string department,\r\n        uint DOB,\r\n        uint yearOfGraduation,\r\n        string CGPA,\r\n        string percentage\r\n        //uint noOfSubjects,\r\n        //string[] subjectName,\r\n        //uint[] subjectMarks\r\n    );\r\n\r\n    event studentMarksEvent\r\n    (\r\n        uint s1,\r\n        uint s2,\r\n        uint s3,\r\n        uint s4,\r\n        uint s5,\r\n        uint s6,\r\n        uint s7,\r\n        uint s8\r\n    );\r\n    \r\n    function createStudent(uint _studId, string memory _regNo, string memory _firstName, string memory _lastName, string memory _department, uint _DOB, uint _yearOfGraduation, string memory _CGPA, string memory _percentage) public\r\n    {\r\n\r\n        studentList[studentCount] = Student(_studId, _regNo, _firstName, _lastName, _department, _DOB, _yearOfGraduation, _CGPA, _percentage);\r\n        //var student = studentList[_studId];\r\n        //struct StudentDetails.Student student = studentList[_studId];\r\n        //Student memory student = studentList[_studId];\r\n        //student.regNo = _regNo;\r\n        //student.firstName = _firstName;\r\n        //student.lastName = _lastName;\r\n        //student.dateDOB = _dateDOB;\r\n        //student.monthDOB = _monthDOB;\r\n        //student.yearDOB = _yearDOB;\r\n        //student.yearOfGraduation = _yearOfGraduation;\r\n        //student.wholeCGPA = _wholeCGPA;\r\n        //student.decimalCGPA = _decimalCGPA;\r\n        //student.wholePercentage = _wholePercentage;\r\n        //student.decimalPercentage = _decimalPercentage;\r\n        \r\n        studIdList.push(_studId) -1;\r\n        studentCount++;\r\n        emit studentCreationEvent(_studId, _regNo, _firstName, _lastName, _department, _DOB, _yearOfGraduation, _CGPA, _percentage);\r\n    }\r\n\r\n    function createStudentMarks(uint _s1, uint _s2, uint _s3, uint _s4, uint _s5, uint _s6, uint _s7, uint _s8) public\r\n    {\r\n        studentMarksList[studentMarksCount] = StudentMarks(_s1, _s2, _s3, _s4, _s5, _s6, _s7, _s8);\r\n        studentMarksCount++;\r\n        emit studentMarksEvent(_s1, _s2, _s3, _s4, _s5, _s6, _s7, _s8);\r\n    }\r\n    \r\n    function getStudents() view public returns(uint[] memory)\r\n    {\r\n        return studIdList;\r\n    }\r\n    \r\n    function getParticularStudent(uint _studId) public view returns (uint, string memory, string memory, string memory, string memory, uint, uint, string memory, string memory)\r\n    {\r\n        Student memory u = studentList[_studId];\r\n        return (u.id, u.regNo, u.firstName, u.lastName, u.department, u.DOB, u.yearOfGraduation, u.CGPA, u.percentage);\r\n    }\r\n\r\n    function countStudents() view public returns (uint)\r\n    {\r\n        return studIdList.length;\r\n    }\r\n}",
  "sourcePath": "D:/Projects/Major Project/Major Software Stack - test network/src/contracts/StudentDetails.sol",
  "compiler": {
    "name": "solc",
    "version": "0.5.0+commit.1d4f565a.Emscripten.clang"
  },
  "schemaVersion": "3.0.2",
  "updatedAt": "2020-05-03T17:41:23.894Z",
  "devdoc": {
    "methods": {}
  },
  "userdoc": {
    "methods": {}
  }
}